:020000040000FA
:030000000210AD3E
:10080000E539242DF8E6053922782A300702782DBB
:10081000E475F001120C5A020BEC2000EB7F2ED293
:10082000008018EF540F2490D43440D4FF30040BD0
:10083000EF24BFB41A0050032461FFE53A600215AB
:100840003A053DE53D7002053C30070D782AE47518
:10085000F001120C5AEF020C320210287403D20776
:100860008003E4C207F5398B2A8A2B892CE4F53AF8
:10087000F53CF53DE53A60077F2012083B80F575B1
:100880003BFFC201C200C202C203C205C206C208C7
:10089000120809FF700D3007057F0012084CAF3DAC
:1008A000AE3C22B4255FC2D5C204120809FF24D091
:1008B000B40A00501A75F00A783A30D50508B6FF28
:1008C0000106C6A426F620D5047002D20380D924DE
:1008D000CFB41A00EF5004C2E5D204020A4CD20190
:1008E00080C6D20080C0D20280BCD2D580BAD205E8
:1008F00080B47F2012083B2002077401B53A004003
:10090000F1120800FF12083B020874D208D20680D8
:1009100095120800FB120800FA120800F94A4B7001
:1009200006791D7A0B7BFF20022EE53A602A7E00B5
:100930008E82758300120C0560060EEE653B70F02A
:10094000C2D5EBC0E0EAC0E0E9C0E0EE120A93D005
:10095000E0F9D0E0FAD0E0FB120BECFF60AAEBC0AC
:10096000E0EAC0E0E9C0E012083BD0E02401F9D0A1
:10097000E03400FAD0E0FBE53B0460DCD53BD980F5
:10098000877BFF7A0A798FD202809C791080027966
:1009900008C206C2088008D2D5790A8004790AC242
:1009A000D5E53B047002F53BE4FAFDFEFF120800BA
:1009B000FC7B08200113120800FD7B1030000A1296
:1009C0000800FE120800FF7B20EC3382D592D55040
:1009D00013C3E43000069FFFE49EFEE42001039D64
:1009E000FDE49CFCE4CBF8C201EC700CCFCECDCC86
:1009F000E824F8F870F38017C3EF33FFEE33FEED11
:100A000033FDEC33FCEB33FB994002FB0FD8E9EBF1
:100A1000300105F8D0E0C448B201C0E00AEC4D4E08
:100A20004F78207B0070C2EAB53B0040BCC0E012AA
:100A30000A95D0F0D0E0200104C4C0E0C4B201C0E7
:100A4000F0120824D0F0D5F0EB020874120C6A09F9
:100A50001153098B5808E24C08DE42098F4F099761
:100A60004409974908F743099D550981460981457D
:100A70000981470B3D5008E62D08EA2E090D2B0889
:100A8000EE23090B200B262A08A648000009053F83
:100A90003F3F00790AA2D5200314300509B910029E
:100AA0000404B9080104A2D5200602500104200262
:100AB000689202B53A005034C0E07F203003197FBD
:100AC00030A20272067205500F120AECC202C20670
:100AD000C205C2087F30800F300503E9C0E012086C
:100AE0003B300503D0E0F9D0E0B53ACC3005177FB4
:100AF00030B9100C12083B7F583004077F78800310
:100B0000B9080312083B3002057F2D02083B7F2005
:100B10002008F87F2B2006F322920280CF286E75E2
:100B20006C6C2900D2011208003001F8C201783A39
:100B300030D50108F60208A62D5043495812080086
:100B40002403B405004001E4900B389312082C7480
:100B50003A12082CD203753A0402098BBB010A89A8
:100B6000828A83E0F5F0A3E022500687F009E719B6
:100B700022BBFE07E3F5F009E3192289828A83E4A8
:100B800093F5F074019322BB0110E58229F582E50B
:100B9000833AF583E0F5F0A3E0225009E92582F8D5
:100BA00086F008E622BBFE0AE92582F8E2F5F008A5
:100BB000E222E5832AF583E993F5F0A3E99322F88D
:100BC000BB0111E58229F582E5833AF583E8F0E57A
:100BD000F0A3F0225009E92582C8F608A6F022BB4E
:100BE000FE09E92582C8F2E5F008F222BB01068978
:100BF000828A83E0225002E722BBFE02E32289823E
:100C00008A83E49322BB010CE58229F582E5833ACD
:100C1000F583E0225006E92582F8E622BBFE06E9CC
:100C20002582F8E222E58229F582E5833AF583E41C
:100C30009322BB010689828A83F0225002F722BBED
:100C4000FE01F322C5F0F8A3E028F0C5F0F8E58234
:100C5000158270021583E038F022FAE6FB0808E6F8
:100C6000F925F0F618E6CA3AF622D083D082F8E4E5
:100C7000937012740193700DA3A393F8740193F50C
:100C8000828883E4737402936860EFA3A3A380DF78
:100C9000EF4E7003020D93900002E07002A3E0702B
:100CA00003020D93CDEFCDCCEECCED24FCFDEC3466
:100CB000FFFC752600752700852782852683E0FACC
:100CC000A3E08A28F52945286011D3E5299FE52866
:100CD0009E500885282685292780DDE5294528603E
:100CE0004A8D828C83A3A3E0FAA3E02FFFEA3EFEA5
:100CF000EF65297003EE6528703185298285288388
:100D0000A3A3E0FEA3E02404FFE43E8D828C83A332
:100D1000A38FF0120C44852982852883E0FFA3E08D
:100D20008D828C83CFF0A3EFF0800B8D828C83E5D6
:100D300028F0A3E529F0852782852683A3A3E0FE7A
:100D4000A3E02527FFEE3526FEEF2404FFE43EFE58
:100D5000EF6D7002EE6C70308D828C83A3A3E0FE89
:100D6000A3E02404FFE43E852782852683A3A38F86
:100D7000F0120C448D828C83E0FFA3E085278285EE
:100D80002683CFF0A3EFF022852782852683ECF01F
:100D9000A3EDF0228E288F297E007F008F828E8324
:100DA000E0FCA3E0FD4C7003FEFF228D828C83A348
:100DB000A3E0FAA3E0FBC39529EA95285008CEECFE
:100DC000CECFEDCF80D6C3EB9529F52BEA9528F54C
:100DD0002AC3E52B9410E52A940050198D828C8348
:100DE000E0FBA3E08F828E83CBF0A3EBF0ED240435
:100DF000FFE43CFE2274FC252BF52B74FF352AF50D
:100E00002A8D828C83A3A3F0A3E52BF0ED2404FFAD
:100E1000E43CFEEF252BFFEE352AFE8F82F583A3FF
:100E2000A3E528F0A3E529F0EF2404FFE43EFE2229
:100E30008E268F278C288D2912100050097BFF7A6F
:100E4000107974020862E526704BE52714601C14C3
:100E5000602E2402703F121000403AC294120FD646
:100E6000D29412100C70EF152880EB121000402560
:100E7000C295120FD6D29512100C70EF152880EB88
:100E80001210004010C296120FD6D29612100C709B
:100E9000EF152880EB228E228F23E4F524F525D34D
:100EA000E5259523E5226480F8E524648098503494
:100EB0007F647E00120FDAE4FF120FA4121096AFC7
:100EC00025AE24120F6F7F027E00120FA41210961F
:100ED0001210967F647E00120FDA0525E52570BF9B
:100EE000052480BB228E268F277F047E00120D945E
:100EF000AA06A9077B01E4FC7D1FAF0574017E00F3
:100F0000A807088005C333CE33CED8F9FFE5265EA7
:100F1000FEE5275F4E600812101475F0018005127F
:100F20001014F5F0120BBFED1D70011CBCFFCBBD02
:100F3000FFC8228E228F23C3E52264809480402E36
:100F4000E4FFFE120FA4121096AF23AE22120F6F11
:100F50007F027E00120FA41210961210967FC87E98
:100F600000120FDAE523152370CD152280C9221255
:100F70000EE5120B5C45F024FF92B09000021210B7
:100F80002092B190000412102092B290000612102C
:100F90002092B3AE02AF01120C907D017C00E4FF01
:100FA000FE020E30EE7024EF146010146013146013
:100FB0001624037016C290C2918010D290C2918004
:100FC0000AC290D2918004D290D2917D017C007FA0
:100FD000017E00020E307F017E00E4FDFCC3ED9F28
:100FE000EE6480F8EC6480985015E4FBFA0BBB00CB
:100FF000010ABA03F8BBE8F50DBD00010C80DE2242
:10100000D3E5299400E5286480948022120FDAE564
:1010100029152922ED25E0FFEC338F82F583E422A8
:10102000120B8745F024FF22EFB40A07740D12104B
:1010300033740A309811A899B8130CC2983098FDEF
:10104000A899C298B811F63099FDC299F599221263
:1010500010B943E340E4FFFE120FA41210961210E1
:10106000962082FD7F0F7E00120E967F0F7E00126B
:101070000F3380ED6E664552524F523A20626C69D2
:101080006E6B282920617267206E6F742076616C08
:101090006964206E0A00C293120FD6D293120FDA3F
:1010A000C293120FDA7D017C000F020E30787FE4CC
:1010B000F6D8FD75813D02104FE4F5A77597DE75F2
:0310C00097AD22C7
:00000001FF
