:020000040000FA
:0300000002106487
:10080000E51B240FF8E6051B22780C300702780F51
:10081000E475F001120C5A020BEC2000EB7F2ED293
:10082000008018EF540F2490D43440D4FF30040BD0
:10083000EF24BFB41A0050032461FFE51C600215C9
:100840001C051FE51F7002051E30070D780CE475AE
:10085000F001120C5AEF020C32020FDE7403D207C1
:100860008003E4C207F51B8B0C8A0D890EE4F51C8E
:10087000F51EF51FE51C60077F2012083B80F5750B
:100880001DFFC201C200C202C203C205C206C208E5
:10089000120809FF700D3007057F0012084CAF1FCA
:1008A000AE1E22B4255FC2D5C204120809FF24D0AF
:1008B000B40A00501A75F00A781C30D50508B6FF46
:1008C0000106C6A426F620D5047002D20380D924DE
:1008D000CFB41A00EF5004C2E5D204020A4CD20190
:1008E00080C6D20080C0D20280BCD2D580BAD205E8
:1008F00080B47F2012083B2002077401B51C004021
:10090000F1120800FF12083B020874D208D20680D8
:1009100095120800FB120800FA120800F94A4B7001
:1009200006791D7A0B7BFF20022EE51C602A7E00D3
:100930008E82758300120C0560060EEE651D70F048
:10094000C2D5EBC0E0EAC0E0E9C0E0EE120A93D005
:10095000E0F9D0E0FAD0E0FB120BECFF60AAEBC0AC
:10096000E0EAC0E0E9C0E012083BD0E02401F9D0A1
:10097000E03400FAD0E0FBE51D0460DCD51DD98031
:10098000877BFF7A0A798FD202809C791080027966
:1009900008C206C2088008D2D5790A8004790AC242
:1009A000D5E51D047002F51DE4FAFDFEFF120800F6
:1009B000FC7B08200113120800FD7B1030000A1296
:1009C0000800FE120800FF7B20EC3382D592D55040
:1009D00013C3E43000069FFFE49EFEE42001039D64
:1009E000FDE49CFCE4CBF8C201EC700CCFCECDCC86
:1009F000E824F8F870F38017C3EF33FFEE33FEED11
:100A000033FDEC33FCEB33FB994002FB0FD8E9EBF1
:100A1000300105F8D0E0C448B201C0E00AEC4D4E08
:100A20004F78207B0070C2EAB51D0040BCC0E012C8
:100A30000A95D0F0D0E0200104C4C0E0C4B201C0E7
:100A4000F0120824D0F0D5F0EB020874120C6A09F9
:100A50001153098B5808E24C08DE42098F4F099761
:100A60004409974908F743099D550981460981457D
:100A70000981470B3D5008E62D08EA2E090D2B0889
:100A8000EE23090B200B262A08A648000009053F83
:100A90003F3F00790AA2D5200314300509B910029E
:100AA0000404B9080104A2D5200602500104200262
:100AB000689202B51C005034C0E07F203003197FDB
:100AC00030A20272067205500F120AECC202C20670
:100AD000C205C2087F30800F300503E9C0E012086C
:100AE0003B300503D0E0F9D0E0B51CCC3005177FD2
:100AF00030B9100C12083B7F583004077F78800310
:100B0000B9080312083B3002057F2D02083B7F2005
:100B10002008F87F2B2006F322920280CF286E75E2
:100B20006C6C2900D2011208003001F8C201781C57
:100B300030D50108F60208A62D5043495812080086
:100B40002403B405004001E4900B389312082C7480
:100B50003A12082CD203751C0402098BBB010A89C6
:100B6000828A83E0F5F0A3E022500687F009E719B6
:100B700022BBFE07E3F5F009E3192289828A83E4A8
:100B800093F5F074019322BB0110E58229F582E50B
:100B9000833AF583E0F5F0A3E0225009E92582F8D5
:100BA00086F008E622BBFE0AE92582F8E2F5F008A5
:100BB000E222E5832AF583E993F5F0A3E99322F88D
:100BC000BB0111E58229F582E5833AF583E8F0E57A
:100BD000F0A3F0225009E92582C8F608A6F022BB4E
:100BE000FE09E92582C8F2E5F008F222BB01068978
:100BF000828A83E0225002E722BBFE02E32289823E
:100C00008A83E49322BB010CE58229F582E5833ACD
:100C1000F583E0225006E92582F8E622BBFE06E9CC
:100C20002582F8E222E58229F582E5833AF583E41C
:100C30009322BB010689828A83F0225002F722BBED
:100C4000FE01F322C5F0F8A3E028F0C5F0F8E58234
:100C5000158270021583E038F022FAE6FB0808E6F8
:100C6000F925F0F618E6CA3AF622D083D082F8E4E5
:100C7000937012740193700DA3A393F8740193F50C
:100C8000828883E4737402936860EFA3A3A380DF78
:100C9000EF4E7003020D93900002E07002A3E0702B
:100CA00003020D93CDEFCDCCEECCED24FCFDEC3466
:100CB000FFFC750800750900850982850883E0FA44
:100CC000A3E08A0AF50B450A6011D3E50B9FE50AFC
:100CD0009E5008850A08850B0980DDE50B450A60F2
:100CE0004A8D828C83A3A3E0FAA3E02FFFEA3EFEA5
:100CF000EF650B7003EE650A7031850B82850A8300
:100D0000A3A3E0FEA3E02404FFE43E8D828C83A332
:100D1000A38FF0120C44850B82850A83E0FFA3E0C9
:100D20008D828C83CFF0A3EFF0800B8D828C83E5D6
:100D30000AF0A3E50BF0850982850883A3A3E0FEF2
:100D4000A3E02509FFEE3508FEEF2404FFE43EFE94
:100D5000EF6D7002EE6C70308D828C83A3A3E0FE89
:100D6000A3E02404FFE43E850982850883A3A38FC2
:100D7000F0120C448D828C83E0FFA3E0850982850C
:100D80000883CFF0A3EFF022850982850883ECF079
:100D9000A3EDF0228E0A8F0B7E007F008F828E8360
:100DA000E0FCA3E0FD4C7003FEFF228D828C83A348
:100DB000A3E0FAA3E0FBC3950BEA950A5008CEEC3A
:100DC000CECFEDCF80D6C3EB950BF50DEA950AF5A6
:100DD0000CC3E50D9410E50C940050198D828C83A2
:100DE000E0FBA3E08F828E83CBF0A3EBF0ED240435
:100DF000FFE43CFE2274FC250DF50D74FF350CF567
:100E00000C8D828C83A3A3F0A3E50DF0ED2404FFE9
:100E1000E43CFEEF250DFFEE350CFE8F82F583A33B
:100E2000A3E50AF0A3E50BF0EF2404FFE43EFE2265
:100E30008E088F098C0A8D0B120F4150097BFF7AA7
:100E400010792B020862E508704BE50914601C1448
:100E5000602E2402703F120F41403AC294120F5488
:100E6000D294120F5B70EF150A80EB120F414025F0
:100E7000C295120F54D295120F5B70EF150A80EBDA
:100E8000120F414010C296120F54D296120F5B708F
:100E9000EF150A80EB2212107043E340E4FFFE12CC
:100EA0000FAC12104D2082FDE4FFFE120ED4E4FFC1
:100EB000120FAC12104D7F087E00120F777F027E5A
:100EC00000120FAC12104D120F4DE4FF120ED4128F
:100ED000100580D1120FAC12104D7F077E00120F4B
:100EE000777F027E00120FAC12104D7F647E0012DD
:100EF0001005228E088F097F047E00120D94AA0629
:100F0000A9077B01E4FC7D1FAF0574017E00A807E3
:100F1000088005C333CE33CED8F9FFE5085EFEE581
:100F2000095F4E6008120F6375F0018005120F63B0
:100F3000F5F0120BBFED1D70011CBCFFCBBDFFC84F
:100F400022D3E50B9400E50A64809480227F647EBE
:100F5000000210057F017E00021005121005E50B4E
:100F6000150B22ED25E0FFEC338F82F583E422128E
:100F70000B8745F024FF22120EF3120B5C45F02480
:100F8000FF92B4900002120F6F92B1900004120F02
:100F90006F92B2900006120F6F92B3AE02AF0112C1
:100FA0000C907D017C00E4FFFE020E30EE7024EF19
:100FB00014601014601314601624037016C290C2DB
:100FC000918010D290C291800AC290D2918004D2B6
:100FD00090D2917D017C007F017E00020E30EFB443
:100FE0000A07740D120FE9740A309811A899B81302
:100FF0000CC2983098FDA899C298B811F63099FDA6
:10100000C299F59922E4FDFCC3ED9FEE6480F8ECF3
:101010006480985015E4FBFA0BBB00010ABA03F890
:10102000BBE8F50DBD00010C80DE226E6645525214
:101030004F523A20626C696E6B28292061726720DA
:101040006E6F742076616C6964206E0A00C2931220
:101050000F54D293121005C2931210057D017C002B
:101060000F020E30787FE4F6D8FD758121020E96CE
:0A107000E4F5A77597DE7597AD2231
:00000001FF
