:020000040000FA
:0600000002128902171034
:03000B000218597F
:0300130002192FA0
:03002B000214F5C7
:030033000211F2C5
:030053000211494E
:0300730002199BD4
:100300007CFF7DFFDDFEDCFA227E32120300DEFB85
:1003100022D294D295C29622C294D295C29622C27B
:1003200094D295D29622D294D295D29622021800D7
:1003300000011A00011B00021C0000C100C103C122
:1003400004C101C1020112000113000114000117D0
:100350000002150000040800000000020C0001610A
:10036000A401D80000000000000000000000000010
:10037000000000000000000000000000000000007D
:10038000000000000000000000000000000000006D
:10039000000000000000000000000000000000005D
:1003A000000000000000000000000000000000004D
:1003B000000000000000000000000000000000003D
:1003C000000000000000000000000000000000002D
:1003D000000000000000000000000000000000001D
:1003E000000000000000000000000000000000000D
:1003F00000000000000000000000000000000000FD
:1004000000000000000000000000000000000000EC
:1004100000000000000000000000000000000000DC
:1004200000000000000000000000000000000000CC
:1004300000000000000000000000000000000000BC
:1004400000000000000000000000000000000000AC
:10045000000000000000000000000000000000009C
:10046000000000000000000000000000000000008C
:10047000000000000000000000000000000000007C
:10048000000000000000000000000000000000006C
:10049000000000000000000000000000000000005C
:1004A000000000000000000000000000000000004C
:1004B000000000000000000000000000000000003C
:1004C000000000000000000000000000000000002C
:1004D000000000000000000000000000000000001C
:1004E000000000000000000000000000000000000C
:1004F00000000000000000000000000000000000FC
:100500000000000000000061A400240000000000C2
:1005100000000000000000000000000000000000DB
:1005200000000000000000000000000000000000CB
:1005300000000000000000000000000000000000BB
:1005400000000000000000000000000000000000AB
:10055000000000000000000000000000000000009B
:10056000000000000000000000000000000000008B
:10057000000000000000000000000000000000007B
:10058000000000000000000000000000000000006B
:10059000000000000000000000000000000000005B
:1005A000000000000000000000000000000000004B
:1005B000000000000000000000000000000000003B
:1005C000000000000000000000000000000000002B
:1005D000000000000000000000000000000000001B
:1005E000000000000000000000000000000000000B
:1005F00000000000000000000000000000000000FB
:1006000000000000000000000000000000000000EA
:1006100000000000000000000000000000000000DA
:1006200000000000000000000000000000000000CA
:1006300000000000000000000000000000000000BA
:1006400000000000000000000000000000000000AA
:10065000000000000000000000000000000000009A
:10066000000000000000000000000000000000008A
:10067000000000000000000000000000000000007A
:10068000000000000000000000000000000000006A
:10069000000000000000000000000000000000005A
:1006A0000000000000000000000000000000001436
:1006B00050000000000000000000000000000000EA
:1006C0000000000000036A000000016D00016601E7
:1006D000016E00017000017100017200016F0101E3
:1006E0006800016700016500016400024E0000001F
:1006F000577269746520202020202020202020416E
:1007000053434949005772697465202020202020F6
:100710002020202020204845580052656164202078
:1007200020202020202020202041534349490052EE
:1007300065616420202020202020202020202020EF
:10074000484558000020505020C060601040000014
:1007500000000000702070F810F830F87070000091
:10076000080080707070F070E0F8F8708870388859
:1007700080888870F070F078F88888888888F870A9
:1007800000702000400080000800300080201080B1
:100790006000000000000000400000000000003089
:1007A00020600000000000000020505078C8902019
:1007B0002020202000000000886088103080400841
:1007C00088886060100040880888888890808088C9
:1007D0008820109080D88888888888802088888899
:1007E00088880840001050002000800008004878E9
:1007F0008000008020000000000000004000000099
:10080000000000402010400000000000002050F8D0
:100810008010A0404010A820000000089820082068
:1008200050F080108888606020F820080888888050
:1008300088808080882010A080A8C88888888880C8
:100840002088888850881040801088001070B07010
:1008500068704088B060309020D0B070F068B070A0
:10086000E08888888888F8402010A80000000000F0
:100870000020005070204000401070F800F8001078
:10088000A82010109008F020707800004000101090
:100890006888F08088F0F0B8F82010C080A8A88898
:1008A000F088F070208888A8205020404010000078
:1008B0000008C8809888E088C82010A020A8C888B0
:1008C0008898C88040888888508810802008100048
:1008D00000000000000000F80840A8004010A82018
:1008E00060000020C8202008F80888408808606060
:1008F00020F82020A8F8888088808088882010A090
:100900008088988880A8A008208888A85020404027
:10091000201000000078888088F84078882010C077
:1009200020A88888F0788070408888A820782040A7
:10093000201000000000000000000050F09890001F
:100940002020202020006040882040881088884097
:100950008810602010004000A888888890808088D7
:10096000882090908088888880909008208850A85F
:100970008820804010100000008888888880400807
:10098000882090A02088888880088008489850A8EF
:1009900050084040201000000000000000200050DF
:1009A0002018680010400000400060807070F870EF
:1009B0001070704070600040080080207088F070F7
:1009C000E0F8807088706088F8888870806888F0A7
:1009D000207020508820F870087000FC0078F070BB
:1009E000787040708870609070888870800880F09F
:1009F000306820508870F83020600000000000004F
:100A000000000000000000000000000000000000E6
:100A100000000000000000000000000000000000D6
:100A200000000000000000000000000000000000C6
:100A300000000000000000000000000000000000B6
:100A400000000000000000000000000000000000A6
:100A50000000000000000000000000000000000096
:100A60000000000012198A75F014E56EA424D8F570
:100A700082E5F03401F583E5822570F582E4358363
:100A8000F583EFF075F014E56EA424D8F582E5F057
:100A90003401F583E5822570F582E43583F583E042
:100AA000FFB41B24E4F56F75660175F014E56EA4C0
:100AB00024D8F582E5F03401F583E5822570F582CE
:100AC000E43583F583E4F022EF6408602375F014C5
:100AD000E56EA424D8F582E5F03401F583E582259E
:100AE00070F582E43583F583E0647F6003020BFEDA
:100AF00075F014E56EA424D8F582E5F03401F58391
:100B0000E5822570F582E43583F583E4F0E56D70C8
:100B100045E56F6401703FE5707007156E757013E1
:100B20008002157075F014E56EA424D8F582E5F006
:100B30003401F583E5822570F582E43583F583E49D
:100B4000F0E56E75F014A424D8F9740135F0FA7B41
:100B500001E56E020BF3E56D64016003020CC1E573
:100B60006F64016003020CC1E572C3940250151555
:100B70007175721175F014E571A42424F582E5F005
:100B800034008010157275F014E571A424D8F58234
:100B9000E5F03401F583E5822572F582E43583F5CD
:100BA00083E4F075F014E571A42423F582E5F034B4
:100BB00000F583E5822572F582E43583F583E4F060
:100BC00075F014E571A42422F582E5F03400F58374
:100BD000E5822572F582E43583F583E4F01572151C
:100BE00072E57175F014A42424F9740035F0FA7BD1
:100BF00001E57175F00AA4FD752C0102133275F040
:100C000014E56EA424D8F582E5F03401F583E5827D
:100C10002570F582E43583F583E0FF121395E56DC9
:100C2000B4011CE56FB40117E57175F014A4242418
:100C3000F9740035F0FA7B01C3E5719567801EE514
:100C40006D701DE56FB40118E56E75F014A424D81D
:100C5000F9740135F0FA7B01C3E56E956812132A29
:100C6000057074032572F572E570B41205E4F57031
:100C7000056EE56EB41507E4F56EF5688016E56857
:100C8000240BFFE433FEE56EB50709E4B506050560
:100C900068756501E572D394114005E4F57205713C
:100CA000E571B41506E4F571F56722E567240BFFDD
:100CB000E433FEE571B50709E4B50605056775641B
:100CC0000122C2D530F707B2D563F0FF05F030E757
:100CD0000CB2D5F4048463F0FF05F080018430D5B4
:100CE00002F40422BB010689828A83E0225002E7D3
:100CF00022BBFE02E32289828A83E49322BB010C99
:100D0000E58229F582E5833AF583E0225006E9255C
:100D100082F8E622BBFE06E92582F8E222E5822976
:100D2000F582E5833AF583E49322E88FF0A4CC8B37
:100D3000F0A42CFCE98EF0A42CFC8AF0EDA42CFC91
:100D4000EA8EF0A4CDA8F08BF0A42DCC3825F0FDD0
:100D5000E98FF0A42CCD35F0FCEB8EF0A4FEA9F0C9
:100D6000EB8FF0A4CFC5F02ECD39FEE43CFCEAA415
:100D70002DCE35F0FDE43CFC2275F008758200EFC5
:100D80002FFFEE33FECD33CDCC33CCC58233C582BD
:100D90009BED9AEC99E58298400CF582EE9BFEED76
:100DA0009AFDEC99FC0FD5F0D6E4CEFBE4CDFAE445
:100DB000CCF9A88222B800C1B90059BA002DEC8B39
:100DC000F084CFCECDFCE5F0CBF97818EF2FFFEE15
:100DD00033FEED33FDEC33FCEB33FB10D7039940CE
:100DE00004EB99FB0FD8E5E4F9FA227818EF2FFF0E
:100DF000EE33FEED33FDEC33FCC933C910D7059B50
:100E0000E99A4007EC9BFCE99AF90FD8E0E4C9FAAB
:100E1000E4CCFB2275F010EF2FFFEE33FEED33FD37
:100E2000CC33CCC833C810D7079BEC9AE899400A5A
:100E3000ED9BFDEC9AFCE899F80FD5F0DAE4CDFBD8
:100E4000E4CCFAE4C8F922EB9FF5F0EA9E42F0E91F
:100E50009D42F0E89C45F022E8600FECC313FCEDE6
:100E600013FDEE13FEEF13FFD8F1228F2A8E298D8A
:100E7000288C27E47F4EFEFDFCAB2AAA29A928A8CE
:100E800027D3120E475006752B01020FDCE47FC4F6
:100E90007E0AFDFCAB2AAA29A928A827C3120E475F
:100EA0004015E47F5A7E0BFDFCA827D3120E475055
:100EB00006752B02020FDCE47F9A7E09FDFCAB2A4B
:100EC000AA29A928A827C3120E474015E47F307E1F
:100ED0000AFDFCA827D3120E475006752B03020FFC
:100EE000DCE47F277E06FDFCAB2AAA29A928A827D7
:100EF000C3120E474015E47FBD7E06FDFCA827D334
:100F0000120E475006752B04020FDCE47F717E073A
:100F1000FDFCAB2AAA29A928A827C3120E47401511
:100F2000E47F077E08FDFCA827D3120E4750067504
:100F30002B05020FDCE47F7C7E08FDFCAB2AAA298E
:100F4000A928A827C3120E474014E47F127E09FD8A
:100F5000FCA827D3120E475005752B06807EE47F30
:100F6000BE7E06FDFCAB2AAA29A928A827C3120E1B
:100F7000474014E47F547E07FDFCA827D3120E4798
:100F80005005752B078055E47F4E7E05FDFCAB2A8E
:100F9000AA29A928A827C3120E474014E47FE47E9B
:100FA00005FDFCA827D3120E475005752B08802C91
:100FB000E47F8B7E04FDFCAB2AAA29A928A827C3BD
:100FC000120E474014E47F217E05FDFCA827D312B2
:100FD0000E475005752B098003E4F52BAF2B228EAD
:100FE0002F8F308D318B32AB33AA34A935120CE4FC
:100FF0007003021148F537C3648094A04009D3E51B
:1010000037648094FF4003753720E53675F008A4F7
:10101000FFC374809FFFE531D39F4003021130AFBF
:1010200037EF3395E0FE75F064E532A42FF582E5E5
:10103000F03EF583E5822431F582E583341AF583A9
:10104000E493FBE4F53CF53BF53AF539FAEB20E0A7
:10105000030210D1E536B4011DAF3CAE3BAD3AAC56
:1010600039F9F8120E58EFF53CEEF53BEDF53AEC98
:101070004480F5398072E536B4021DAF3CAE3BAD1D
:101080003AAC39F9F8120E58EFF53CEEF53BEDF5B8
:101090003AEC44C0F5398050E536AF3CAE3BAD3A52
:1010A000AC39B40315F9F8120E58EFF53CEEF53BE8
:1010B000EDF53AEC44E0F539802EA936A801120E80
:1010C00058EFF53CEEF53BEDF53AEC44F0F53980A0
:1010D00017AF3CAE3BAD3AAC39A936A801120E5859
:1010E0008F3C8E3B8D3A8C39EBC313FB0AEA6408C4
:1010F000600302104DE4FAEAC395365033EA75F006
:1011000008A4FFC374189FF538EA75F008A42531C8
:10111000FDC005AF3CAE3BAD3AAC39A938A80112D1
:101120000E58AB07D005AF30AE2F12148C0A80C713
:1011300074012535F535E43534F534E53675F006BA
:10114000A42531F531020FE722C0E0C0F0C083C012
:1011500082C0D075D000C000C001C002C003C0046E
:10116000C005C006C007754D00754C00754B007575
:101170004A00C2EDAFBDAEBEE4FCFDE50B2FF50BA2
:10118000E50A3EF50AED3509F509EC3508F508E5FF
:101190000D150D7002150CE50D450C703AF50C752A
:1011A0000D01850B4D850A4C85094B85084AF50BC9
:1011B000F50AF509F5087FE47E0CAB4DAA4CA94B66
:1011C000A84A120D2AE47BFF7A03F9F8120DB58FB5
:1011D000118E108D0F8C0ED007D006D005D004D004
:1011E00003D002D001D000D0D0D082D083D0F0D0B4
:1011F000E032C0E0C0F0C083C082C0D075D000C073
:1012000000C001C002C003C004C005C006C007750D
:10121000A720E5F854F0F4440F52F8AF9BEF30E309
:101220004DE5126031E5A120E02C300113851682D6
:10123000851583E5A3F00516E516700705158003EF
:1012400085A326D5120D300305300002D2FA1219FB
:101250001B8003851214E513601430F91130020964
:10126000A817E2F5A30517800375A3001513D0078F
:10127000D006D005D004D003D002D001D000D0D009
:10128000D082D083D0F0D0E032787FE4F6D8FD75FC
:1012900081720212D00219E2E493A3F8E493A3400E
:1012A00003F68001F208DFF48029E493A3F85407E1
:1012B000240CC8C333C4540F4420C8834004F456DC
:1012C000800146F6DFE4800B010204081020408014
:1012D00090032DE47E019360BCA3FF543F30E509E9
:1012E000541FFEE493A360010ECF54C025E060A814
:1012F00040B8E493A3FAE493A3F8E493A3C8C582A7
:10130000C8CAC583CAF0A3C8C582C8CAC583CADF14
:10131000E9DEE780BEE52775F014A42424F9740003
:1013200035F0FA7B01C3E527956775F00AA4FD75D2
:101330002C018B288A29892A8D2BE4F52D7E007FAC
:10134000141219687E007F14852833852934852A74
:1013500035852C36AB2D7D04120FDF752E01E52C63
:101360002401FFE433FEC3E52E9FEE6480F8748011
:10137000985018E52D852CF0A4252B252EFF7B01F8
:101380007A007914121652052E80D3052DE52DC34F
:10139000940840A9228F2775F014E56EA424D8F58F
:1013A00082E5F03401F583E5822570F582E435832A
:1013B000F583E0FF1217C675F014E571A42424F537
:1013C00082E5F03400F583E5822572F582E4358309
:1013D000F583E56AF075F014E571A42425F582E53E
:1013E000F03400F583E5822572F582E43583F583D8
:1013F000E56BF075F014E571A42426F582E5F03470
:1014000000F583E5822572F582E43583F583E56C8A
:10141000F022E5666401704DE56D700DE56FB40175
:10142000087BFF7A0679F08031E56DB4010DE56F38
:10143000B401087BFF7A077905801FE56D700CE524
:101440006F70087BFF7A07791A800FE56DB401127F
:10145000E56F700E7BFF7A07792F752C017D78126E
:101460001332E4F566E56DB4010FE564B4010A12C8
:1014700018AD12176DE4F56422E56D700EE565B4E4
:1014800001091218AD121554E4F56522ED1313137A
:10149000541F2FF53EE43EF53D853E82F583C08323
:1014A000C082ED5407F9E47EFFA801088005CEC391
:1014B00013CE13D8F9F4FFEEF4FEE05EFEA3E05F76
:1014C000FFD082D083EEF0A3EFF0853E82853D838E
:1014D000C083C082EBFEE4A801088005CEC313CE12
:1014E00013D8F9FFE04EFEA3E04FFFD082D083EE89
:1014F000F0A3EFF022C0E0C0F0C083C082C0D0757E
:10150000D000C000C001C002C003C004C005C006B6
:10151000C00753C87F53C8FBE51AB40112751A02FD
:101520007F00851B257B02E4FDFC121600800AE586
:101530001AB40305C2A6751A00D007D006D005D08C
:1015400004D003D002D001D000D0D0D082D083D03C
:10155000F0D0E032C3E56E9568D3940B40268568E1
:1015600027E527C3940B5042E52775F014A424D82F
:10157000F9740135F0FA7B01C3E527956812132A47
:10158000052780DD856827E527D3956E501CE52764
:1015900075F014A424D8F9740135F0FA7B01C3E581
:1015A00027956812132A052780DD221219AB120E27
:1015B0006B8F69E569B40221E568C394155009E5AC
:1015C0006D70050568756501E567C394155030E5D4
:1015D0006D6401702A05678023E569B40421E5681C
:1015E000D394004009E56D70051568756501E567E0
:1015F000D39400400AE56DB40105156775640122B6
:101600008525128525138525148F178C158D16EBCE
:10161000139201EBA2E19202AFA775A72020040369
:10162000121979439A0453F80F539BEF439A0830E9
:101630000305300002C2FA30F915E51360113002DB
:1016400009A817E2F5A305178003E4F5A315138F86
:10165000A7228F2F8B308A3189327F801218198F01
:1016600033E52F04FF12179A8F34E4FFAB30AA3111
:10167000A9328F82758300120CFDFE74352FF8A6F7
:10168000060FBF10E7E4F545F546FB7A0079337D98
:10169000140216948B478A488949E51A70FC751A1A
:1016A000018D1BE4FFEFC39D5018AB47AA48A94921
:1016B0008F82758300120CFDFE74002FF8EEF20F7E
:1016C00080E3AFA7E4F5A775CFFF75CEF4D2A643AC
:1016D000C8048FA7228F288D29E52960057529FF69
:1016E0008003E4F5297F801218198F2AE52804FF6A
:1016F00012179A8F2BE4FF742C2FF8A6290FBF1016
:10170000F6E4F53CF53DFB7A00792A7D1402169447
:10171000C0E0C0D075D000C00720821AE56D7F0000
:1017200070027F018F6D756601E56DB4010575640A
:10173000018003756501C2A8D007D0D0D0E0328502
:10174000A7271219EF1219F9121A03121A0D1219FA
:10175000C81218DB121A211218F1121894121A1753
:101760001219D5121A49121A3A8527A722C3E57110
:101770009567D3940B4011856727E527C3940B50D9
:1017800018121315052780F2856727E527D3957171
:101790005007121315052780F222EF540FC454F09E
:1017A000FEEF54F0C4540F4EFF543325E025E0FE05
:1017B000EF54CC1313543F4EFF545525E0FEEF5425
:1017C000AAC3134EFF22AD07ED75F010120CC2FF35
:1017D0003395E0FE1219568F6AED75F010120CC2A7
:1017E000AFF0EF3395E0FE1219568F6B756C202227
:1017F000121A32121878121A4DC2A2D29912141269
:10180000E56FB40105120A6480031215AB30820241
:10181000D2A83083E8D2AA80E48F471218C5C3EF5C
:101820009519FDEE9518FCD3ED94C8EC9400400793
:101830004347408E188F19AF4722AB07AA061218EC
:10184000C58F828E831218C5C3EF9582FFEE9583F4
:10185000FEC3EF9BEE9A40ED22C0E0C0D0054FE5FD
:101860004F7002054EB4200BE54EB40306754E00D2
:10187000754F00D0D0D0E032AF885388AF758D96C9
:10188000EF5440FEEF54104E4288758E0875892043
:1018900043884022E59154045391FB7595F8759463
:1018A000067593F8759206439104429122E4F52758
:1018B0007B007A007950E52712132A0527E527C314
:1018C000940C40EC22AFA775A71053E67FAD1DAC7A
:1018D0001C43E6808FA7AE04AF052275B301E4F583
:1018E000B275BB0D75DF3F75BC0875B90143E88063
:1018F00022AF885388AF758C01758D96EF5440FEEA
:10190000EF54104E428822E4F527E4FDAF2712166B
:10191000D50527E527C3948040F022751A03AFA7A9
:10192000E4F5A775CFFF75CEFC43C8048FA722C08E
:10193000E020830AE56F7006756F01756601C2AA23
:10194000D0E032BF0A083099FDC29975990D3099DF
:10195000FDC2998F9922C3EF940AEE9400EF5004D0
:101960002430FF222437FF22E4FDEF2DF582E43EF0
:10197000F583E4F00DBD10F222E5A1A2E69203E5A5
:10198000F8540C24FF9200D2042210050B121A41C5
:10199000BF0D027F0A021A45AF1E22C0E053917F9D
:1019A000051DE51D7002051CD0E03253E6F7AF11AE
:1019B000AE10AD0FAC0E43E60822C2A6D2B47F0A29
:1019C0007E0012183A021907E4F5A775E34075E1A5
:1019D0000375E2032275A20B43A14053F8F343F8C9
:1019E000012212173FD2AF1219BA1217F080FEE48B
:1019F000F5A77597DE7597AD2275A45075D40F7550
:101A0000FE042275A57175F27D75D58E2275A648E6
:101A100075A72075CC0822758E0A758922438850D7
:101A200022E4F5A9E5A930E7FB223098FDAF99C281
:101A3000982275E432D2A8D2AA2275E68A75A8E562
:101A400022121A2A22121943224398102243981074
:101A5000220020505020C0606010400000000000B4
:101A600000702070F810F830F870700000080080E6
:101A7000707070F070E0F8F870887038888088882E
:101A800070F070F078F88888888888F87000702086
:101A900000400080000800300080201080600000BE
:101AA0000000000000400000000000003020600046
:101AB00000000000000020505078C8902020202016
:101AC000200000000088608810308040088888600E
:101AD000601000408808888888908080888820105E
:101AE0009080D88888888888802088888888880816
:101AF000400010500020008000080048788000005E
:101B000080200000000000000040000000000000F5
:101B1000402010400000000000002050F88010A07D
:101B2000404010A820000000089820082050F080B5
:101B3000108888606020F820080888888088808065
:101B400080882010A080A8C88888888880208888FD
:101B50008850881040801088001070B07068704005
:101B600088B060309020D0B070F068B070E08888A5
:101B7000888888F8402010A800000000000020009D
:101B80005070204000401070F800F80010A820109D
:101B9000109008F02070780000400010106888F065
:101BA0008088F0F0B8F82010C080A8A888F088F0ED
:101BB00070208888A820502040401000000008C8ED
:101BC000809888E088C82010A020A8C8888898C875
:101BD000804088888850881080200810000000000D
:101BE00000000000F80840A8004010A82060000095
:101BF00020C8202008F80888408808606020F82065
:101C000020A8F8888088808088882010A080889804
:101C10008880A8A008208888A85020404020100074
:101C2000000078888088F84078882010C020A88834
:101C300088F0788070408888A820782040201000A4
:101C4000000000000000000050F0989000202020CC
:101C500020200060408820408810888840881060DC
:101C60002010004000A88888889080808888209074
:101C7000908088888880909008208850A88820804C
:101C800040101000000088888888804008882090D4
:101C9000A02088888880088008489850A85008406C
:101CA00040201000000000000000200050201868B4
:101CB0000010400000400060807070F8701070707C
:101CC0004070600040080080207088F070E0F8806C
:101CD0007088706088F8888870806888F02070202C
:101CE000508820F870087000FC0078F07078704020
:101CF000708870609070888870800880F0306820EC
:101D0000508870F8302060000000000000000000E3
:101D100000000000000000000000000000000000C3
:101D200000000000000000000000000000000000B3
:101D300000000000000000000000000000000000A3
:101D40000000000000000000000000000000000093
:101D50000000000000000000000000000000000083
:101D60000000000000000000000000000000000073
:011D70000072
:00000001FF
