:020000040000FA
:06000000020901020E548A
:03000B00020DEAF9
:03001300020FFADF
:03002B00020ACCFA
:0300330002086A56
:03007300020F6613
:100300007CFF7DFFDDFEDCFA227E32120300DEFB85
:1003100022D294D295C29622C294D295C29622C27B
:1003200094D295D29622D294D295D296224C6170D4
:10033000733A0053544F5057415443480009090938
:100340000909090909094A6F6579264E696B6F6CBD
:1003500061000020505020C060601040000000008C
:100360000000702070F810F830F87070000008007D
:1003700080707070F070E0F8F8708870388880884D
:100380008870F070F078F88888888888F870007035
:1003900020004000800008003000802010806000B5
:1003A000000000000000400000000000003020605D
:1003B0000000000000000020505078C8902020204D
:1003C0002020000000008860881030804008888865
:1003D0006060100040880888888890808088882025
:1003E000109080D888888888888020888888888825
:1003F000084000105000200080000800487880006D
:10040000008020000000000000004000000000000C
:1004100000402010400000000000002050F8801034
:10042000A0404010A820000000089820082050F0AC
:1004300080108888606020F820080888888088807C
:100440008080882010A080A8C8888888888020881C
:10045000888850881040801088001070B0706870D4
:100460004088B060309020D0B070F068B070E08804
:1004700088888888F8402010A8000000000000202C
:10048000005070204000401070F800F80010A820C4
:1004900010109008F020707800004000101068885C
:1004A000F08088F0F0B8F82010C080A8A888F08804
:1004B000F070208888A820502040401000000008DC
:1004C000C8809888E088C82010A020A8C88888988C
:1004D000C88040888888508810802008100000005C
:1004E0000000000000F80840A8004010A8206000AC
:1004F0000020C8202008F80888408808606020F89C
:100500002020A8F8888088808088882010A0808893
:10051000988880A8A008208888A8502040402010F3
:1005200000000078888088F84078882010C020A8D3
:100530008888F0788070408888A820782040201033
:1005400000000000000000000050F0989000202003
:100550002020200060408820408810888840881033
:10056000602010004000A8888888908080888820BB
:1005700090908088888880909008208850A8882053
:1005800080401010000000888888888040088820FB
:1005900090A02088888880088008489850A8500833
:1005A00040402010000000000000002000502018F3
:1005B000680010400000400060807070F87010709B
:1005C000704070600040080080207088F070E0F893
:1005D000807088706088F8888870806888F02070E3
:1005E00020508820F870087000FC0078F070787057
:1005F00040708870609070888870800880F03068E3
:1006000020508870F83020600000000000000000DA
:1006100000000000000000000000000000000000DA
:1006200000000000000000000000000000000000CA
:1006300000000000000000000000000000000000BA
:1006400000000000000000000000000000000000AA
:10065000000000000000000000000000000000009A
:10066000000000000000000000000000000000008A
:1006700000008E2E8F2F8D308B31AB32AA33A934F0
:100680001207897003020788F536C3648094A0407E
:1006900009D3E536648094FF4003753620E535754F
:1006A000F008A4FFC374809FFFE530D39F4003028E
:1006B0000770AF36EF3395E0FE75F064E531A42F97
:1006C000F582E5F03EF583E58224E9F582E58334A1
:1006D0000FF583E493FBE4F53BF53AF539F538FA89
:1006E000EB30E03AE535B40109120B864480F53869
:1006F000803EE535B40209120B8644C0F5388030DF
:10070000E535120BA7B40309120B8E44E0F53880CF
:100710001FA935A801120B9044F0F5388012120B76
:10072000A7A935A8011208578F3B8E3A8D398C380E
:10073000EBC313FB0AEA640870A6E4FAEAC3953532
:10074000502EEA75F008A4FFC374189FF537EA75B8
:10075000F008A42530FDC005120BA7A937A8011287
:100760000857AB07D005AF2FAE2E120B2B0A80CC4B
:1007700074012534F534E43533F533E53575F00689
:10078000A42530F53002067A22BB010689828A83CD
:10079000E0225002E722BBFE02E32289828A83E440
:1007A0009322BB010CE58229F582E5833AF583E0CB
:1007B000225006E92582F8E622BBFE06E92582F8EA
:1007C000E222E58229F582E5833AF583E49322F873
:1007D000BB010DE58229F582E5833AF583E8F02235
:1007E0005006E92582C8F622BBFE05E92582C8F23B
:1007F00022BC000BBE0029EF8DF084FFADF022E497
:10080000CCF875F008EF2FFFEE33FEEC33FCEE9DD5
:10081000EC984005FCEE9DFE0FD5F0E9E4CEFD22FC
:10082000EDF8F5F0EE8420D21CFEADF075F008EF87
:100830002FFFED33FD4007985006D5F0F222C39804
:10084000FD0FD5F0EA22EB9FF5F0EA9E42F0E99D1C
:1008500042F0E89C45F022E8600FECC313FCED1376
:10086000FDEE13FEEF13FFD8F122C0E0C0F0C0830D
:10087000C082C0D075D000C000C001C002C003C09B
:1008800004C005C006C00775A720E5F854F0F4447D
:100890000F52F8AF9BEF30E34DE5086031E5A12042
:1008A000E02C300113850C82850B83E5A3F0050C49
:1008B000E50C7007050B800385A326D5080D3003D2
:1008C00005300002D2FA120F0A800385080AE509F2
:1008D000601430F911300209A80DE2F5A3050D806E
:1008E0000375A3001509D007D006D005D004D003A6
:1008F000D002D001D000D0D0D082D083D0F0D0E0D0
:1009000032787FE4F6D8FD75816A020948020F9EAD
:10091000E493A3F8E493A34003F68001F208DFF424
:100920008029E493A3F85407240CC8C333C4540F9C
:100930004420C8834004F456800146F6DFE4800B6F
:100940000102040810204080900D66E47E0193604F
:10095000BCA3FF543F30E509541FFEE493A360019C
:100960000ECF54C025E060A840B8E493A3FAE49306
:10097000A3F8E493A3C8C582C8CAC583CAF0A3C8B4
:10098000C582C8CAC583CADFE9DEE780BEE5606507
:10099000616071E561C39409506AE56025E0244B0C
:1009A000F8A65E08A65FE56070227BFF7A03792DCA
:1009B000752B017D28120A69120E21AF5FAE5E12FF
:1009C0000A05120E21752B017D328032E56025E08B
:1009D0002449F8E6FE08E6FFE56025E0244BF8E64A
:1009E000FC08E6C39FFFEC9EFE120E21120A0512C0
:1009F0000E21E56075F008A42432FD752B01120A62
:100A000069856160228E278F288B298A2A892B7518
:100A10002C07E4F52D120E14E4120E117473120E4D
:100A20001174201207CFE52DB4010EAB29AA2AA913
:100A30002B120E14742E1207CF120E28ED2430FF45
:100A4000AB29AA2AA92BE52CFD3395E08D82F583ED
:100A5000EF1207CF120E288E278F28052D152CC3D5
:100A6000E52C6480948050BE228B278A2889298DAA
:100A70002AE4F52C7E007F14120F447E007F14853B
:100A80002732852833852934852B35AB2C7D0412FC
:100A90000672752D01E52B2401FFE433FEC3E52D1D
:100AA0009FEE6480F87480985018E52C852BF0A494
:100AB000252A252DFF7B017A007914120C77052D4C
:100AC00080D3052CE52CC3940840A922C0E0C0F0D7
:100AD000C083C082C0D075D000C000C001C002C0B9
:100AE00003C004C005C006C00753C87F53C8FBE558
:100AF00010B401127510027F008511257B02E4FD00
:100B0000FC120BDF800AE510B40305C2A6751000C5
:100B1000D007D006D005D004D003D002D001D00039
:100B2000D0D0D082D083D0F0D0E032ED1313135464
:100B30001F2FF53DE43EF53C853D82F583C083C023
:100B400082ED5407F9E47EFFA801088005CEC313A7
:100B5000CE13D8F9120BB0D082D083EEF0A3EFF011
:100B6000853D82853C83C083C082EBFEE4A80108FA
:100B70008005CEC313CE13D8F9120B9ED082D0833A
:100B8000EEF0A3EFF022AF3BAE3AAD39AC38F9F856
:100B9000120857EFF53BEEF53AEDF539EC22FFE0A0
:100BA0004EFEA3E04FFF22AF3BAE3AAD39AC382248
:100BB000F4FFEEF4FEE05EFEA3E05FFF22EFA4FF91
:100BC000ED7A002FFFEA35F0FE22EEF0A3EFF0748D
:100BD0000829F90D22131313541FFFEDC39F22851B
:100BE000250885250985250A8F0D8C0B8D0CEB13A7
:100BF0009201EBA2E19202AFA775A7202004031295
:100C00000F55439A0453F80F539BEF439A08300350
:100C100005300002C2FA30F915E509601130020909
:100C2000A80DE2F5A3050D8003E4F5A315098FA730
:100C300022120FF2120E94120FAB7BFF7A0379335C
:100C4000752B02E4FD120A697BFF7A03793D752B4F
:100C5000017D74120A69120EE112098DE55DB4017D
:100C60000A20A807C2A9120D35D2A9308202D2A843
:100C70003083E3D2AA80DF8F2E8B2F8A3089317F99
:100C800080120E338F32E52E04FF120D938F33E462
:100C9000FFAB2FAA30A9318F827583001207A2FE05
:100CA00074342FF8A6060FBF10E7E4F544F545FBB2
:100CB0007A0079327D14020CB98B468A478948E55F
:100CC0001070FC7510018D11E4FFEFC39D5018AB3F
:100CD00046AA47A9488F827583001207A2FE7400B6
:100CE0002FF8EEF20F80E3AFA7E4F5A775CFFF75FD
:100CF000CEF4D2A643C8048FA7228F288D29E529D8
:100D000060057529FF8003E4F5297F80120E338F7B
:100D10002AE52804FF120D938F2BE4FF742C2FF883
:100D2000A6290FBF10F6E4F53CF53DFB7A00792AC1
:100D30007D14020CB91203111203091203261203C7
:100D400009120311120309120326120309120318D0
:100D500012030912032612030912031F12030912B8
:100D6000032612030922020E0000011000011100E7
:100D700002120000C100C103C104C101C102010887
:100D800000010900010A00010D00020B00000249E8
:100D9000000000EF540FC454F0FEEF54F0C4540FA1
:100DA0004EFF543325E025E0FEEF54CC1313543F9F
:100DB0004EFF545525E0FEEF54AAC3134EFF228583
:100DC000A727120FB7120FC1120FCB120FD5120F98
:100DD00084120F1E120FE9120F31120EB2120FDF22
:100DE000120F911210028527A722C0E0C0D0054A39
:100DF000E54A70020549B42013E549B4030E055FC6
:100E0000E55F7002055E754900754A00D0D0D0E0FC
:100E1000321207CFAF2C152CEF3395E08F82F5837C
:100E2000227B007A00796222AE27AF287C007D0AFF
:100E30000207F18F46120ECBC3EF950FFDEE950E14
:100E4000FCD3ED94C8EC940040074346408E0E8FCF
:100E50000FAF4622C0E0C0D075D000C00720820C82
:100E6000B2A9E55D7F0070027F018F5DC2A8D00747
:100E7000D0D0D0E032AB07AA06120ECB8F828E8381
:100E8000120ECBC3EF9582FFEE9583FEC3EF9BEE70
:100E90009A40ED22AF885388AF758CC0EF5440FE66
:100EA000EF54104E4288758E02758902438810C235
:100EB000A922E59154045391FB7595F87594067534
:100EC00093F8759206439104429122AFA775A7103B
:100ED00053E67FAD13AC1243E6808FA7AE04AF0597
:100EE00022120E21AF5FAE5E120A05120E21752B83
:100EF000027D14020A69E4F527E4FDAF27120CFA1B
:100F00000527E527C3948040F022751003AFA7E4BE
:100F1000F5A775CFFF75CEFC43C8048FA72275B324
:100F20000175BB0D75DF3F75BC0875B90143E880DD
:100F300022AF885388AF758C01EF5440FEEF5410F8
:100F40004E428822E4FDEF2DF582E43EF583E4F085
:100F50000DBD10F222E5A1A2E69203E5F8540C249F
:100F6000FF9200D20422C0E053917F0513E5137075
:100F7000020512D0E032C2A6D2B47F0A7E00120E61
:100F800075020EF6E4F5A775E34075E10275E2031C
:100F90002275A20B43A14053F8F343F80122120D2E
:100FA000BFD2AF120F76120C3180FEE4F55EF55F12
:100FB000F561F560F55D22E4F5A77597DE7597ADEF
:100FC0002275A44075D43F75FE042275A57175F293
:100FD0007D75D58E2275A64875A72075CC0822751B
:100FE0008E0275890243881022E4F5A9E5A930E74D
:100FF000FB2275E432D2A8D2AA222083020561C264
:10100000AA3275E68A75A860220020505020C06080
:10101000601040000000000000702070F810F830F0
:10102000F870700000080080707070F070E0F8F8E0
:10103000708870388880888870F070F078F88888B8
:10104000888888F870007020004000800008003018
:1010500000802010806000000000000000400000C0
:101060000000000030206000000000000000205060
:101070005078C89020202020200000000088608840
:101080001030804008888860601000408808888898
:1010900088908080888820109080D8888888888868
:1010A00080208888888888084000105000200080B0
:1010B0000008004878800000802000000000000048
:1010C0000040000000000000402010400000000030
:1010D00000002050F88010A0404010A82000000020
:1010E000089820082050F080108888606020F82040
:1010F000080888888088808080882010A080A8C800
:101100008888888880208888885088104080108847
:10111000001070B07068704088B060309020D0B01F
:1011200070F068B070E08888888888F8402010A83F
:1011300000000000000020005070204000401070AF
:10114000F800F80010A82010109008F02070780027
:1011500000400010106888F08088F0F0B8F8201087
:10116000C080A8A888F088F070208888A820502027
:1011700040401000000008C8809888E088C820100F
:10118000A020A8C8888898C880408888885088107F
:10119000802008100000000000000000F80840A8AF
:1011A000004010A82060000020C8202008F808880F
:1011B000408808606020F82020A8F8888088808017
:1011C00088882010A08088988880A8A00820888817
:1011D000A850204040201000000078888088F84007
:1011E00078882010C020A88888F07880704088888F
:1011F000A82078204020100000000000000000001F
:1012000050F098900020202020200060408820404E
:1012100088108888408810602010004000A88888C6
:10122000889080808888209090808888888090909E
:1012300008208850A888208040101000000088886E
:101240008888804008882090A0208888888008802E
:1012500008489850A85008404020100000000000A6
:10126000000020005020186800104000004000607E
:10127000807070F8701070704070600040080080DE
:10128000207088F070E0F8807088706088F8888836
:1012900070806888F0207020508820F870087000F6
:1012A000FC0078F07078704070887060907088886A
:1012B00070800880F0306820508870F8302060001E
:1012C000000000000000000000000000000000001E
:1012D000000000000000000000000000000000000E
:1012E00000000000000000000000000000000000FE
:1012F00000000000000000000000000000000000EE
:1013000000000000000000000000000000000000DD
:1013100000000000000000000000000000000000CD
:09132000000000000000000000C4
:00000001FF
