:020000040000FA
:060000000209E0020E639C
:03000B00020DF9EA
:03001300020FD207
:03002B00020BB213
:0300330002094976
:03007300020F7108
:100300007CFF7DFFDDFEDCFA227E32120300DEFB85
:10031000224C6170733A0053544F50574154434834
:10032000000909090909090909094A6F6579264E71
:10033000696B6F6C61000020505020C060601040FD
:10034000000000000000702070F810F830F87070A5
:100350000000080080707070F070E0F8F87088702D
:10036000388880888870F070F078F8888888888865
:10037000F8700070200040008000080030008020ED
:10038000108060000000000000004000000000003D
:10039000003020600000000000000020505078C8AD
:1003A00090202020202000000000886088103080ED
:1003B000400888886060100040880888888890809D
:1003C00080888820109080D88888888888802088B5
:1003D00088888888084000105000200080000800AD
:1003E00048788000008020000000000000004000ED
:1003F000000000000040201040000000000000202D
:1004000050F88010A0404010A8200000000898205C
:10041000082050F080108888606020F82008088844
:10042000888088808080882010A080A8C8888888DC
:10043000888020888888508810408010880010703C
:10044000B07068704088B060309020D0B070F068B4
:10045000B070E08888888888F8402010A8000000E4
:1004600000000020005070204000401070F800F89C
:100470000010A82010109008F020707800004000B4
:1004800010106888F08088F0F0B8F82010C080A8BC
:10049000A888F088F070208888A82050204040105C
:1004A00000000008C8809888E088C82010A020A814
:1004B000C8888898C880408888885088108020081C
:1004C000100000000000000000F80840A8004010E4
:1004D000A82060000020C8202008F808884088086C
:1004E000606020F82020A8F8888088808088882094
:1004F00010A08088988880A8A008208888A850200C
:100500004040201000000078888088F840788820DB
:1005100010C020A88888F0788070408888A820784B
:100520002040201000000000000000000050F09863
:1005300090002020202020006040882040881088E3
:1005400088408810602010004000A888888890802B
:100550008088882090908088888880909008208863
:1005600050A888208040101000000088888888806B
:100570004008882090A020888888800880084898B3
:1005800050A850084040201000000000000000204B
:10059000005020186800104000004000608070701B
:1005A000F870107070407060004008008020708803
:1005B000F070E0F8807088706088F88888708068D3
:1005C00088F0207020508820F870087000FC0078B7
:1005D000F0707870407088706090708888708008C3
:1005E00080F0306820508870F830206000000000F3
:1005F00000000000000000000000000000000000FB
:1006000000000000000000000000000000000000EA
:1006100000000000000000000000000000000000DA
:1006200000000000000000000000000000000000CA
:1006300000000000000000000000000000000000BA
:1006400000000000000000000000000000000000AA
:100650000000000000008E2E8F2F8D308B31AB32CA
:10066000AA33A9341207C070030207BFF536C3646A
:100670008094A04009D3E536648094FF400375362A
:1006800020E53575F008A4FFC374809FFFE530D3E3
:100690009F40030207A7AF36EF3395E0FE75F06485
:1006A000E531A42FF582E5F03EF583E58224E3F5FC
:1006B00082E583340FF583E493FBE4F53BF53AF5EB
:1006C00039F538FAEB20E003020748E535B4011D9F
:1006D000AF3BAE3AAD39AC38F9F812088EEFF53BC6
:1006E000EEF53AEDF539EC4480F5388072E535B435
:1006F000021DAF3BAE3AAD39AC38F9F812088EEFB7
:10070000F53BEEF53AEDF539EC44C0F5388050E5AF
:1007100035AF3BAE3AAD39AC38B40315F9F8120831
:100720008EEFF53BEEF53AEDF539EC44E0F5388027
:100730002EA935A80112088EEFF53BEEF53AEDF53E
:1007400039EC44F0F5388017AF3BAE3AAD39AC38F0
:10075000A935A80112088E8F3B8E3A8D398C38EB63
:10076000C313FB0AEA640860030206C4E4FAEAC39E
:1007700095355033EA75F008A4FFC374189FF53718
:10078000EA75F008A42530FDC005AF3BAE3AAD399F
:10079000AC38A937A80112088EAB07D005AF2FAE31
:1007A0002E120AE60A80C774012534F534E4353385
:1007B000F533E53575F006A42530F53002065E22E6
:1007C000BB010689828A83E0225002E722BBFE0237
:1007D000E32289828A83E49322BB010CE58229F516
:1007E00082E5833AF583E0225006E92582F8E62285
:1007F000BBFE06E92582F8E222E58229F582E5833F
:100800003AF583E49322F8BB010DE58229F582E5F0
:10081000833AF583E8F0225006E92582C8F622BB28
:10082000FE05E92582C8F222BC000BBE0029EF8D2F
:10083000F084FFADF022E4CCF875F008EF2FFFEE66
:1008400033FEEC33FCEE9DEC984005FCEE9DFE0F74
:10085000D5F0E9E4CEFD22EDF8F5F0EE8420D21CCF
:10086000FEADF075F008EF2FFFED33FD4007985017
:1008700006D5F0F222C398FD0FD5F0EA22EB9FF5E2
:10088000F0EA9E42F0E99D42F0E89C45F022E860E3
:100890000FECC313FCED13FDEE13FEEF13FFD8F1C5
:1008A000227B007A007962AF5FAE5E8E278F288B45
:1008B000298A2A892B752C07E4F52DAF2C152CEFEE
:1008C0003395E08F82F583E4120806AF2C152CEFE8
:1008D0003395E08F82F5837473120806AF2C152CC4
:1008E000EF3395E08F82F5837420120806E52DB46E
:1008F0000117AB29AA2AA92BAF2C152CEF3395E0B1
:100900008F82F583742E120806AE27AF287C007DF7
:100910000A120828ED2430FFAB29AA2AA92BE52CBE
:10092000FD3395E08D82F583EF120806AE27AF28E0
:100930007C007D0A1208288E278F28052D152CC3D0
:10094000E52C6480948050A522C0E0C0F0C083C034
:1009500082C0D075D000C000C001C002C003C00476
:10096000C005C006C00775A720E5F854F0F4440F91
:1009700052F8AF9BEF30E34DE5086031E5A120E090
:100980002C300113850C82850B83E5A3F0050CE563
:100990000C7007050B800385A326D5080D300305D1
:1009A000300002D2FA120F04800385080AE50960BC
:1009B0001430F911300209A80DE2F5A3050D8003EA
:1009C00075A3001509D007D006D005D004D003D0F8
:1009D00002D001D000D0D0D082D083D0F0D0E0328D
:1009E000787FE4F6D8FD75816A020A27020FA9E430
:1009F00093A3F8E493A34003F68001F208DFF480A8
:100A000029E493A3F85407240CC8C333C4540F44F7
:100A100020C8834004F456800146F6DFE4800B01D1
:100A200002040810204080900DA0E47E019360BC79
:100A3000A3FF543F30E509541FFEE493A360010E69
:100A4000CF54C025E060A840B8E493A3FAE493A390
:100A5000F8E493A3C8C582C8CAC583CAF0A3C8C5B1
:100A600082C8CAC583CADFE9DEE780BEE56065618A
:100A70006073E561C39409506CE56025E0244BF890
:100A8000A65E08A65FE560701E7BFF7A037911758C
:100A90002B017D28120B4F1208A17B007A0079628E
:100AA000752B017D328038E56025E02449F8E6FEAB
:100AB00008E6FFE56025E0244BF8E6FC08E6C39F66
:100AC000FFEC9EFE7B007A0079621208AB7B007A15
:100AD000007962E56075F008A42432FD752B0112DF
:100AE0000B4F85616022ED131313541F2FF53DE466
:100AF0003EF53C853D82F583C083C082ED5407F905
:100B0000E47EFFA801088005CEC313CE13D8F9F404
:100B1000FFEEF4FEE05EFEA3E05FFFD082D083EE46
:100B2000F0A3EFF0853D82853C83C083C082EBFE5D
:100B3000E4A801088005CEC313CE13D8F9FFE04E18
:100B4000FEA3E04FFFD082D083EEF0A3EFF0228B24
:100B5000278A2889298D2AE4F52C7E007F14120F1C
:100B60003E7E007F14852732852833852934852BE6
:100B700035AB2C7D04120656752D01E52B2401FFA3
:100B8000E433FEC3E52D9FEE6480F874809850181E
:100B9000E52C852BF0A4252A252DFF7B017A0079F1
:100BA00014120CB1052D80D3052CE52CC3940840FC
:100BB000A922C0E0C0F0C083C082C0D075D000C000
:100BC00000C001C002C003C004C005C006C0075376
:100BD000C87F53C8FBE510B401127510027F008571
:100BE00011257B02E4FDFC120C11800AE510B40310
:100BF00005C2A6751000D007D006D005D004D003DA
:100C0000D002D001D000D0D0D082D083D0F0D0E0BC
:100C10003285250885250985250A8F0D8C0B8D0CBD
:100C2000EB139201EBA2E19202AFA775A72020047B
:100C300003120F4F439A0453F80F539BEF439A0844
:100C4000300305300002C2FA30F915E509601130B1
:100C50000209A80DE2F5A3050D8003E4F5A315092B
:100C60008FA722120FCA120EA37BFF7A0379177582
:100C70002B02E4FD120B4F7BFF7A037921752B01C8
:100C80007D74120B4FE4F55EF55FF561F560F55D7F
:100C9000120F60120A6CE55DB4010A20A807C2A910
:100CA000120D6FD2A9308202D2A83083E3D2AA807B
:100CB000DF8F2E8B2F8A3089317F80120E428F3248
:100CC000E52E04FF120DCD8F33E4FFAB2FAA30A920
:100CD000318F827583001207D9FE74342FF8A6066F
:100CE0000FBF10E7E4F544F545FB7A0079327D1437
:100CF000020CF38B468A478948E51070FC75100199
:100D00008D11E4FFEFC39D5018AB46AA47A9488F49
:100D1000827583001207D9FE74002FF8EEF20F805F
:100D2000E3AFA7E4F5A775CFFF75CEF4D2A643C80D
:100D3000048FA7228F288D29E52960057529FF805A
:100D400003E4F5297F80120E428F2AE52804FF1262
:100D50000DCD8F2BE4FF742C2FF8A6290FBF10F6B2
:100D6000E4F53CF53DFB7A00792A7D14020CF31280
:100D70000FE1120309120FF6120309120FE1120319
:100D800009120FF6120309120FE8120309120FF6E7
:100D9000120309120FEF120309120FF612030922B0
:100DA000020E000001100001110002120000C1003B
:100DB000C103C104C101C102010800010900010A07
:100DC00000010D00020B00000249000000EF540F6B
:100DD000C454F0FEEF54F0C4540F4EFF543325E0DA
:100DE00025E0FEEF54CC1313543F4EFF545525E03D
:100DF000FEEF54AAC3134EFF22C0E0C0D0054AE55F
:100E00004A70020549B42013E549B4030E055FE5B5
:100E10005F7002055E754900754A00D0D0D0E0329F
:100E200085A727120FB6120F18120F2B120FC01220
:100E30000F8F120FFD120EC1120F9C120FDA8527B1
:100E4000A7228F46120EDAC3EF950FFDEE950EFC2A
:100E5000D3ED94C8EC940040074346408E0E8F0FAC
:100E6000AF4622C0E0C0D075D000C00720820CB2CF
:100E7000A9E55D7F0070027F018F5DC2A8D007D019
:100E8000D0D0E032AB07AA06120EDA8F828E831220
:100E90000EDAC3EF9582FFEE9583FEC3EF9BEE9AC9
:100EA00040ED22AF885388AF758CC0EF5440FEEF01
:100EB00054104E4288758E02758902438810C2A96B
:100EC00022E59154045391FB7595F875940675933A
:100ED000F8759206439104429122AFA775A710536B
:100EE000E67FAD13AC1243E6808FA7AE04AF0522B8
:100EF000E4F527E4FDAF27120D340527E527C39459
:100F00008040F022751003AFA7E4F5A775CFFF75F9
:100F1000CEFC43C8048FA7227580FF75A44075F1ED
:100F2000FF75D43F75FE0475FDFF227590FF75A512
:100F30007175F27D75D5FEE4F5EE75EDFF22E4FDE9
:100F4000EF2DF582E43EF583E4F00DBD10F222E5CD
:100F5000A1A2E69203E5F8540C24FF9200D20422E9
:100F60001208A17B007A007962752B027D14020BB6
:100F70004FC0E053917F0513E51370020512D0E0D6
:100F800032C2A6D2B47F0A7E00120E84020EF0E4B2
:100F9000F5A775E34075E10275E2032275A20B43E4
:100FA000A14053F8F343F80122120E20D2AF120FE2
:100FB00081120C6380FEE4F5A77597DE7597AD226C
:100FC00075A64875A72075CC082275E432D2A8D240
:100FD000AA222083020561C2AA3275E68875A8603C
:100FE00022D294D295C29622C294D295C29622C29F
:100FF00094D295D29622D294D295D29622E4F5A993
:10100000F5A9220020505020C06060104000000070
:10101000000000702070F810F830F87070000008C0
:101020000080707070F070E0F8F870887038888018
:10103000888870F070F078F88888888888F8700060
:101040007020004000800008003000802010806088
:101050000000000000000040000000000000302000
:10106000600000000000000020505078C890202050
:101070002020200000000088608810308040088810
:101080008860601000408808888888908080888800
:1010900020109080D88888888888802088888888D0
:1010A0008808400010500020008000080048788028
:1010B0000000802000000000000000400000000050
:1010C0000000402010400000000000002050F88088
:1010D00010A0404010A820000000089820082050D0
:1010E000F080108888606020F82008088888808850
:1010F000808080882010A080A8C888888888802068
:1011000088888850881040801088001070B07068FF
:10111000704088B060309020D0B070F068B070E05F
:101120008888888888F8402010A800000000000007
:1011300020005070204000401070F800F80010A807
:101140002010109008F02070780000400010106807
:1011500088F08088F0F0B8F82010C080A8A888F047
:1011600088F070208888A82050204040100000009F
:1011700008C8809888E088C82010A020A8C888885F
:1011800098C8804088888850881080200810000007
:10119000000000000000F80840A8004010A82060EF
:1011A000000020C8202008F80888408808606020D7
:1011B000F82020A8F8888088808088882010A08067
:1011C00088988880A8A008208888A85020404020BF
:1011D0001000000078888088F84078882010C020AF
:1011E000A88888F0788070408888A82078204020DF
:1011F0001000000000000000000050F09890002057
:101200002020202000604088204088108888408866
:1012100010602010004000A888888890808088880E
:101220002090908088888880909008208850A88896
:10123000208040101000000088888888804008883E
:101240002090A02088888880088008489850A8505E
:101250000840402010000000000000002000502046
:1012600018680010400000400060807070F8701036
:1012700070704070600040080080207088F070E05E
:10128000F8807088706088F8888870806888F0209E
:101290007020508820F870087000FC0078F070789A
:1012A0007040708870609070888870800880F0301E
:1012B0006820508870F830206000000000000000B6
:1012C000000000000000000000000000000000001E
:1012D000000000000000000000000000000000000E
:1012E00000000000000000000000000000000000FE
:1012F00000000000000000000000000000000000EE
:1013000000000000000000000000000000000000DD
:1013100000000000000000000000000000000000CD
:03132000000000CA
:00000001FF
